:020000040800F2
:10000000280400209D010008410500087F04000825
:100010003D050008250200082D0D00080000000025
:100020000000000000000000000000001D070008A4
:100030002902000800000000D10500084D08000852
:10004000B7010008B7010008B7010008B7010008B0
:10005000B7010008B70100082D020008B701000829
:10006000B7010008B7010008B7010008B701000890
:10007000B7010008B7010008B7010008B701000880
:10008000B7010008B7010008B7010008B701000870
:10009000B7010008B7010008B701000845020008D1
:1000A000B7010008B7010008B7010008B701000850
:1000B000B7010008B7010008B7010008B701000840
:1000C000B7010008B7010008B7010008B701000830
:1000D000B7010008490A0008B7010008B701000885
:1000E000B7010008B7010008B7010008B701000810
:1000F000B7010008B7010008B7010008B701000800
:10010000B7010008B7010008B7010008B7010008EF
:10011000B7010008B7010008C5080008B7010008CA
:10012000B7010008B7010008B7010008B7010008CF
:10013000B7010008B7010008B7010008B7010008BF
:10014000B7010008B7010008B7010008B7010008AF
:10015000B7010008B7010008B7010008B70100089F
:10016000B7010008B7010008B7010008B70100088F
:10017000B7010008B7010008B7010008B70100087F
:10018000B7010008B7010008DFF80CD000F018F83C
:1001900000480047A50D00082804002006488047B5
:1001A00006480047FEE7FEE7FEE7FEE7FEE7FEE75C
:1001B000FEE7FEE7FEE7FEE75D08000889010008AC
:1001C000064C074D06E0E06840F0010394E80700A4
:1001D00098471034AC42F6D3FFF7DAFF300E000830
:1001E000500E00081CB50121202000F0F3F94FF457
:1001F0008070009001208DF8040002208DF8050029
:1002000000208DF8060001208DF80700694604489B
:1002100000F0C2F84FF48071014800F028F91CBDCD
:100220000014024000BFFEE77047000010B54FF415
:100230000071034800F01FF9012000F013F810BD11
:100240000014024010B5202000F012F810B1202058
:1002500000F008F8402000F00BF810B1402000F04A
:1002600001F810BD0149086070470000143C0140CE
:1002700001460020034A12680A400AB1012000E04A
:1002800000207047143C0140002123498279002A54
:100290003AD00A46126803689A430B461A600A1D50
:1002A000126803689A430B1D1A60027911440A68A8
:1002B00003681A430A60184A0832126803689A43AE
:1002C000154B08331A601A1D126803689A43124BC3
:1002D0000C331A604279102A0ED11A1F1268036873
:1002E0001A430D4B08331A601A1D126803681A432B
:1002F000094B0C331A600DE00749427911440A6832
:1003000003681A430A6005E0027911440A68036829
:100310009A430A6070470000003C014000B585B078
:100320000121084600F056F90120039000208DF8C5
:10033000100002208DF8110001208DF8130003A990
:10034000144800F029F80121880300F063F9002126
:10035000084600F0E5F90120019000208DF8080022
:100360000C208DF8090001208DF80A0001A8FFF784
:100370008BFF06208DF8000001208DF8010002207F
:100380008DF8020001208DF80300684600F0DAF8CD
:1003900005B000BD00000240F0B50A460021002370
:1003A000002400BF3DE0012505FA01F3156805EAC8
:1003B00003049C4234D105684F000326BE40B54378
:1003C000056015794E00B54006683543056015791E
:1003D000012D02D01579022D16D185684F00032614
:1003E000BE40B543856055794E00B54086683543BB
:1003F0008560456801268E40B5434560456896791D
:100400008E40B6B235434560C5684F000326BE40F6
:10041000B543C560D5794E00B540C6683543C56063
:10042000491C1029BFD3F0BDF0B5002300244D07AF
:10043000ED0E02FA05F3CE1000F1200555F8265016
:100440004E07F70E0F26BE40B543CF1000F1200631
:1004500046F82750CE1000F1200555F8265045EA01
:100460000304CE1000F1200545F82640F0BD41837D
:1004700070470183704742694A404261704700BF3C
:10048000FEE700001CB50121312000F0A3F81C207C
:10049000009000208DF8040002208DF805006946C8
:1004A0000748FFF779FF0120009000208DF8040035
:1004B00002208DF8050069460248FFF76DFF1CBD5C
:1004C00000100240000002401CB50121302000F065
:1004D00081F84FF4C060009001208DF804000220E4
:1004E0008DF8050000208DF8060001208DF807002A
:1004F00069461048FFF750FF4FF4C04000900120BC
:100500008DF8040002208DF8050000208DF806000B
:1005100001208DF8070069460748FFF73DFF4FF4BB
:10052000C0610448FFF7A5FF4FF4C0410248FFF740
:10053000A0FF1CBD001402400010024000BFFEE7F7
:100540007047000070B5002100230F22C4781CB34F
:10055000174C246804F4E064C4F5E064C4F3072194
:10056000C1F10404E3B20A4144789C40E1B28478CA
:10057000144021430C07210E0E4C05786155047878
:1005800004F01F050124AC4005786D11AD0005F1A4
:10059000E025C5F8004109E0047804F01F050124B6
:1005A000AC40054D0678761145F8264070BD000038
:1005B0000CED00E000E400E080E100E002490143CE
:1005C000024A1160704700000000FA050CED00E0DF
:1005D0007047000029B1064A12680243044B1A60B2
:1005E00004E0034A12688243014B1A60704700001E
:1005F0003038024029B1064A12680243044B1A609F
:1006000004E0034A12688243014B1A6070470000FD
:100610004038024029B1064A12680243044B1A606E
:1006200004E0034A12688243014B1A6070470000DD
:1006300044380240F0B500210022002402250026A3
:100640000223324F3F6807F00C0121B1042905D085
:10065000082937D105E02E4F076036E02D4F07609F
:1006600033E02A4F3F1F3F68C7F38056274F3F1F95
:100670003F6807F03F036EB1264FB7FBF3F7DFF893
:100680008CC0ACF1040CDCF800C0CCF3881C07FB78
:100690000CF40CE01E4FB7FBF3F7DFF870C0ACF1C1
:1006A000040CDCF800C0CCF3881C07FB0CF4174FDB
:1006B0003F1F3F68C7F301477F1C7D00B4FBF5F780
:1006C000076002E0124F076000BF00BF0F4F3F6896
:1006D00007F0F0010909104F7A5C0768D7404760BE
:1006E0000A4F3F6807F4E051890A0B4F7A5C47686C
:1006F000D7408760054F3F6807F46041490B064FBC
:100700007A5C4768D740C760F0BD000008380240F7
:100710000024F40000127A0010000020704700004E
:1007200030B500228B071C0F0F2303FA04F20B4B8A
:100730008C1053F824309343084C8D1044F8253026
:1007400023468C1053F824308C07240F00FA04F44D
:100750002343024C8D1044F8253030BD0838014049
:100760000CB50020019000903448006840F48030BF
:100770003249086000BF3148006800F40030009042
:100780000198401C0190009818B90198B0F5A04F4D
:10079000F1D12A48006800F4003010B10120009027
:1007A00001E0002000900098012846D12348403005
:1007B000006840F0805021494031086020480068BE
:1007C00040F440401E4908601C48083000681B493E
:1007D000083108600846006840F400400860084698
:1007E000006840F4A05008601648091F0860081F00
:1007F000006840F08070091F086000BF0F48006863
:1008000000F000700028F9D040F205700E49086031
:100810000A480830006820F00300084908310860E1
:100820000846006840F00200086000BF0348083036
:10083000006800F00C000828F8D10CBD0038024018
:100840000070004008544007003C02400248006825
:10085000401E0149086070470C00002010B5154883
:10086000006840F47000134908601348006840F0C5
:1008700001001149086000200F49083108600E4846
:1008800000680E4908400C4908600D48091D0860C1
:10089000081F006820F48020091F08600020064916
:1008A0000C310860FFF75CFF4FF0006001498039B0
:1008B000086010BD88ED00E000380240FFFFF6FE42
:1008C0001030002410B501210D4800F02EF888B139
:1008D0000C480068401C0B49086008460068B0F5E9
:1008E000FA7F07D14FF400710748FFF7C4FD0020DD
:1008F000044908600121024800F008F810BD00001A
:10090000001000402000002000140240CA43028270
:10091000704721B1028842F00102028004E002889F
:100920004FF6FE731A400280704730B50246002031
:1009300000230024158A05EA0103958905EA0104CC
:1009400013B10CB1012000E0002030BD1AB1838941
:100950000B43838102E083898B43838170470000CE
:1009600000220288184B98420ED0184B98420BD0A8
:10097000B0F1804F08D0164B984205D0154B9842E5
:1009800002D0154B984204D14FF68F731A404B8812
:100990001A43124B984207D0114B984204D04FF69D
:1009A000FF431A400B891A4302804B68C3620B88CD
:1009B0000385054B984202D0044B984201D18B7AB3
:1009C0000386012383827047000001400004014038
:1009D0000004004000080040000C004000100040EF
:1009E000001400401FB501211020FFF703FE012174
:1009F0008803FFF70FFE0020ADF806006320029089
:100A000040F24730ADF8040001A90E48FFF7A8FFF7
:100A1000012211460B48FFF799FF36208DF80000A0
:100A200000208DF8010003208DF8020001208DF8D0
:100A300003006846FFF786FD01210248FFF769FFC2
:100A40001FBD00000010004070B5002540F2255188
:100A5000174800F04EF850B3154800F003F9154957
:100A6000154A1268885408460078AA2804D112480A
:100A70000068401C104908600F480068052816D11E
:100A8000002403E00B48005D0544641C042CF9D3EA
:100A9000EDB208480079A84203D101200749087047
:100AA00002E000200549087000200349086070BD7D
:100AB0000010014000000020080000200500002078
:100AC00021B1828942F40052828104E082894DF68C
:100AD000FF731A408281704702460020B1F5007F03
:100AE00000D100BF13880B400BB1012000E00020B3
:100AF000704770B50246002400230025002040F610
:100B00006A16B14200D100BFC1F3421501F01F03C4
:100B1000012606FA03F3012D02D19689334006E03F
:100B2000022D02D1168A334001E0968A33400C121E
:100B3000012606FA04F41688344013B10CB10120E2
:100B400000E0002070BDF0B503460024002600251B
:100B5000002040F66A17B94200D100BF1846C1F321
:100B6000421401F01F06012707FA06F5012C01D1F6
:100B70000C3004E0022C01D1103000E014301AB126
:100B800007682F43076002E00768AF430760F0BDC6
:100B90002DE9FF4705460E460024A14600BFA046AA
:100BA000B08900B100BF2C8A24F44054F08804437B
:100BB0002C82AC8941F20C608443B08831890843AF
:100BC000718908430443AC81AC8A24F44074B08931
:100BD0000443AC826846FFF72DFD2048854202D0D1
:100BE0001F48854202D1DDF80C9001E0DDF8089045
:100BF000A88900F4004040B109EBC90000EB0910DE
:100C000031684900B0FBF1F707E009EBC90000EBE0
:100C1000091031688900B0FBF1F76420B7FBF0F0F0
:100C200004012009642101FB1078A88900F4004028
:100C300040B1322000EBC800B0FBF1F000F007003B
:100C4000044308E0322000EB08106421B0FBF1F00F
:100C500000F00F0004432C81BDE8FF870010014025
:100C60000014014001468888C0F308007047C1F3B2
:100C7000080282807047000010B588B00446012148
:100C80000846FFF7A7FC01211020FFF7C3FC012154
:100C90008803FFF7BFFC072209212248FFF7C4FBA6
:100CA00007220A211F48FFF7BFFB4FF4C0600690E0
:100CB00002208DF81C008DF81D0000208DF81E000C
:100CC00001208DF81F0006A91648FFF765FB029466
:100CD0000020ADF80C00ADF80E00ADF81000ADF836
:100CE00014000C20ADF8120002A90F48FFF750FFC6
:100CF00025208DF8040002208DF805008DF80600EF
:100D000001208DF8070001A8FFF71CFC012240F22A
:100D100025510548FFF717FF01210348FFF7D0FED3
:100D200008B010BD000002400010014000BFFEE707
:100D3000014A024900F013B8810D00082400002088
:100D400002E008C8121F08C1002AFAD17047704794
:100D5000002001E001C1121F002AFBD170472DE9DC
:100D6000F04116460F460446002503E03946B047D9
:100D7000641C6D1C20780028F8D12846BDE8F0815D
:100D800070B504460D46A1B20548FFF770FF00BFDD
:100D900080210348FFF7A0FE0028F9D0204670BD4F
:100DA000001001404FF4A060FFF708FCFFF78CFB38
:100DB000FFF768FBFFF716FAFFF7B0FA4FF416508B
:100DC000FFF75AFFFFF70EFE21E0114800780128D7
:100DD0001DD1104880780F49C97800EB012084B2FA
:100DE0000C48407801280DD1012C03D10AA0FFF74F
:100DF0009FFF03E014B90BA0FFF79AFF00200449FE
:100E0000087003E000200249087000BF00BFDCE763
:100E100005000020000000204C454431206F6E0A80
:100E2000000000004C454431206F66660A00000057
:100E3000500E00080000002028000000400D0008AF
:100E4000780E00082800002000040000500D000863
:100E5000AA000000000000000000000000000000E8
:100E60000000000001020304010203040607080950
:080E700000000000000000007A
:040000050800018965
:00000001FF
